{
  "_format": "hh-sol-artifact-1",
  "contractName": "SmartYouToken",
  "sourceName": "contracts/SmartYouToken.sol",
  "abi": [
    {
      "inputs": [
        {
          "internalType": "string",
          "name": "name",
          "type": "string"
        },
        {
          "internalType": "string",
          "name": "symbol",
          "type": "string"
        },
        {
          "internalType": "uint256",
          "name": "initialSupply",
          "type": "uint256"
        },
        {
          "internalType": "address",
          "name": "initialOwner",
          "type": "address"
        }
      ],
      "stateMutability": "nonpayable",
      "type": "constructor"
    },
    {
      "inputs": [
        {
          "internalType": "address",
          "name": "spender",
          "type": "address"
        },
        {
          "internalType": "uint256",
          "name": "allowance",
          "type": "uint256"
        },
        {
          "internalType": "uint256",
          "name": "needed",
          "type": "uint256"
        }
      ],
      "name": "ERC20InsufficientAllowance",
      "type": "error"
    },
    {
      "inputs": [
        {
          "internalType": "address",
          "name": "sender",
          "type": "address"
        },
        {
          "internalType": "uint256",
          "name": "balance",
          "type": "uint256"
        },
        {
          "internalType": "uint256",
          "name": "needed",
          "type": "uint256"
        }
      ],
      "name": "ERC20InsufficientBalance",
      "type": "error"
    },
    {
      "inputs": [
        {
          "internalType": "address",
          "name": "approver",
          "type": "address"
        }
      ],
      "name": "ERC20InvalidApprover",
      "type": "error"
    },
    {
      "inputs": [
        {
          "internalType": "address",
          "name": "receiver",
          "type": "address"
        }
      ],
      "name": "ERC20InvalidReceiver",
      "type": "error"
    },
    {
      "inputs": [
        {
          "internalType": "address",
          "name": "sender",
          "type": "address"
        }
      ],
      "name": "ERC20InvalidSender",
      "type": "error"
    },
    {
      "inputs": [
        {
          "internalType": "address",
          "name": "spender",
          "type": "address"
        }
      ],
      "name": "ERC20InvalidSpender",
      "type": "error"
    },
    {
      "inputs": [],
      "name": "EnforcedPause",
      "type": "error"
    },
    {
      "inputs": [],
      "name": "ExpectedPause",
      "type": "error"
    },
    {
      "inputs": [
        {
          "internalType": "address",
          "name": "owner",
          "type": "address"
        }
      ],
      "name": "OwnableInvalidOwner",
      "type": "error"
    },
    {
      "inputs": [
        {
          "internalType": "address",
          "name": "account",
          "type": "address"
        }
      ],
      "name": "OwnableUnauthorizedAccount",
      "type": "error"
    },
    {
      "anonymous": false,
      "inputs": [
        {
          "indexed": true,
          "internalType": "address",
          "name": "owner",
          "type": "address"
        },
        {
          "indexed": true,
          "internalType": "address",
          "name": "spender",
          "type": "address"
        },
        {
          "indexed": false,
          "internalType": "uint256",
          "name": "value",
          "type": "uint256"
        }
      ],
      "name": "Approval",
      "type": "event"
    },
    {
      "anonymous": false,
      "inputs": [
        {
          "indexed": true,
          "internalType": "address",
          "name": "educator",
          "type": "address"
        }
      ],
      "name": "EducatorAdded",
      "type": "event"
    },
    {
      "anonymous": false,
      "inputs": [
        {
          "indexed": true,
          "internalType": "address",
          "name": "educator",
          "type": "address"
        }
      ],
      "name": "EducatorRemoved",
      "type": "event"
    },
    {
      "anonymous": false,
      "inputs": [
        {
          "indexed": true,
          "internalType": "address",
          "name": "student",
          "type": "address"
        },
        {
          "indexed": false,
          "internalType": "uint256",
          "name": "level",
          "type": "uint256"
        },
        {
          "indexed": false,
          "internalType": "uint256",
          "name": "reward",
          "type": "uint256"
        }
      ],
      "name": "LevelCompleted",
      "type": "event"
    },
    {
      "anonymous": false,
      "inputs": [
        {
          "indexed": true,
          "internalType": "address",
          "name": "previousOwner",
          "type": "address"
        },
        {
          "indexed": true,
          "internalType": "address",
          "name": "newOwner",
          "type": "address"
        }
      ],
      "name": "OwnershipTransferred",
      "type": "event"
    },
    {
      "anonymous": false,
      "inputs": [
        {
          "indexed": false,
          "internalType": "address",
          "name": "account",
          "type": "address"
        }
      ],
      "name": "Paused",
      "type": "event"
    },
    {
      "anonymous": false,
      "inputs": [
        {
          "indexed": true,
          "internalType": "address",
          "name": "from",
          "type": "address"
        },
        {
          "indexed": true,
          "internalType": "address",
          "name": "to",
          "type": "address"
        },
        {
          "indexed": false,
          "internalType": "uint256",
          "name": "value",
          "type": "uint256"
        }
      ],
      "name": "Transfer",
      "type": "event"
    },
    {
      "anonymous": false,
      "inputs": [
        {
          "indexed": false,
          "internalType": "address",
          "name": "account",
          "type": "address"
        }
      ],
      "name": "Unpaused",
      "type": "event"
    },
    {
      "inputs": [],
      "name": "MAX_SUPPLY",
      "outputs": [
        {
          "internalType": "uint256",
          "name": "",
          "type": "uint256"
        }
      ],
      "stateMutability": "view",
      "type": "function"
    },
    {
      "inputs": [],
      "name": "REWARD_PER_LEVEL",
      "outputs": [
        {
          "internalType": "uint256",
          "name": "",
          "type": "uint256"
        }
      ],
      "stateMutability": "view",
      "type": "function"
    },
    {
      "inputs": [
        {
          "internalType": "address",
          "name": "educator",
          "type": "address"
        }
      ],
      "name": "addEducator",
      "outputs": [],
      "stateMutability": "nonpayable",
      "type": "function"
    },
    {
      "inputs": [
        {
          "internalType": "address",
          "name": "owner",
          "type": "address"
        },
        {
          "internalType": "address",
          "name": "spender",
          "type": "address"
        }
      ],
      "name": "allowance",
      "outputs": [
        {
          "internalType": "uint256",
          "name": "",
          "type": "uint256"
        }
      ],
      "stateMutability": "view",
      "type": "function"
    },
    {
      "inputs": [
        {
          "internalType": "address",
          "name": "spender",
          "type": "address"
        },
        {
          "internalType": "uint256",
          "name": "value",
          "type": "uint256"
        }
      ],
      "name": "approve",
      "outputs": [
        {
          "internalType": "bool",
          "name": "",
          "type": "bool"
        }
      ],
      "stateMutability": "nonpayable",
      "type": "function"
    },
    {
      "inputs": [
        {
          "internalType": "address",
          "name": "account",
          "type": "address"
        }
      ],
      "name": "balanceOf",
      "outputs": [
        {
          "internalType": "uint256",
          "name": "",
          "type": "uint256"
        }
      ],
      "stateMutability": "view",
      "type": "function"
    },
    {
      "inputs": [
        {
          "internalType": "address[]",
          "name": "students",
          "type": "address[]"
        },
        {
          "internalType": "uint256[]",
          "name": "levels",
          "type": "uint256[]"
        }
      ],
      "name": "bulkReward",
      "outputs": [],
      "stateMutability": "nonpayable",
      "type": "function"
    },
    {
      "inputs": [
        {
          "internalType": "uint256",
          "name": "amount",
          "type": "uint256"
        }
      ],
      "name": "burn",
      "outputs": [],
      "stateMutability": "nonpayable",
      "type": "function"
    },
    {
      "inputs": [],
      "name": "decimals",
      "outputs": [
        {
          "internalType": "uint8",
          "name": "",
          "type": "uint8"
        }
      ],
      "stateMutability": "view",
      "type": "function"
    },
    {
      "inputs": [
        {
          "internalType": "address",
          "name": "",
          "type": "address"
        }
      ],
      "name": "educators",
      "outputs": [
        {
          "internalType": "bool",
          "name": "",
          "type": "bool"
        }
      ],
      "stateMutability": "view",
      "type": "function"
    },
    {
      "inputs": [
        {
          "internalType": "address",
          "name": "to",
          "type": "address"
        },
        {
          "internalType": "uint256",
          "name": "amount",
          "type": "uint256"
        }
      ],
      "name": "emergencyMint",
      "outputs": [],
      "stateMutability": "nonpayable",
      "type": "function"
    },
    {
      "inputs": [
        {
          "internalType": "address",
          "name": "student",
          "type": "address"
        }
      ],
      "name": "getStudentProgress",
      "outputs": [
        {
          "internalType": "uint256",
          "name": "levels",
          "type": "uint256"
        },
        {
          "internalType": "uint256",
          "name": "balance",
          "type": "uint256"
        }
      ],
      "stateMutability": "view",
      "type": "function"
    },
    {
      "inputs": [
        {
          "internalType": "address",
          "name": "",
          "type": "address"
        }
      ],
      "name": "levelsCompleted",
      "outputs": [
        {
          "internalType": "uint256",
          "name": "",
          "type": "uint256"
        }
      ],
      "stateMutability": "view",
      "type": "function"
    },
    {
      "inputs": [],
      "name": "name",
      "outputs": [
        {
          "internalType": "string",
          "name": "",
          "type": "string"
        }
      ],
      "stateMutability": "view",
      "type": "function"
    },
    {
      "inputs": [],
      "name": "owner",
      "outputs": [
        {
          "internalType": "address",
          "name": "",
          "type": "address"
        }
      ],
      "stateMutability": "view",
      "type": "function"
    },
    {
      "inputs": [],
      "name": "pause",
      "outputs": [],
      "stateMutability": "nonpayable",
      "type": "function"
    },
    {
      "inputs": [],
      "name": "paused",
      "outputs": [
        {
          "internalType": "bool",
          "name": "",
          "type": "bool"
        }
      ],
      "stateMutability": "view",
      "type": "function"
    },
    {
      "inputs": [
        {
          "internalType": "address",
          "name": "educator",
          "type": "address"
        }
      ],
      "name": "removeEducator",
      "outputs": [],
      "stateMutability": "nonpayable",
      "type": "function"
    },
    {
      "inputs": [],
      "name": "renounceOwnership",
      "outputs": [],
      "stateMutability": "nonpayable",
      "type": "function"
    },
    {
      "inputs": [
        {
          "internalType": "address",
          "name": "student",
          "type": "address"
        },
        {
          "internalType": "uint256",
          "name": "level",
          "type": "uint256"
        }
      ],
      "name": "rewardForLevel",
      "outputs": [],
      "stateMutability": "nonpayable",
      "type": "function"
    },
    {
      "inputs": [],
      "name": "symbol",
      "outputs": [
        {
          "internalType": "string",
          "name": "",
          "type": "string"
        }
      ],
      "stateMutability": "view",
      "type": "function"
    },
    {
      "inputs": [],
      "name": "totalSupply",
      "outputs": [
        {
          "internalType": "uint256",
          "name": "",
          "type": "uint256"
        }
      ],
      "stateMutability": "view",
      "type": "function"
    },
    {
      "inputs": [
        {
          "internalType": "address",
          "name": "to",
          "type": "address"
        },
        {
          "internalType": "uint256",
          "name": "value",
          "type": "uint256"
        }
      ],
      "name": "transfer",
      "outputs": [
        {
          "internalType": "bool",
          "name": "",
          "type": "bool"
        }
      ],
      "stateMutability": "nonpayable",
      "type": "function"
    },
    {
      "inputs": [
        {
          "internalType": "address",
          "name": "from",
          "type": "address"
        },
        {
          "internalType": "address",
          "name": "to",
          "type": "address"
        },
        {
          "internalType": "uint256",
          "name": "value",
          "type": "uint256"
        }
      ],
      "name": "transferFrom",
      "outputs": [
        {
          "internalType": "bool",
          "name": "",
          "type": "bool"
        }
      ],
      "stateMutability": "nonpayable",
      "type": "function"
    },
    {
      "inputs": [
        {
          "internalType": "address",
          "name": "newOwner",
          "type": "address"
        }
      ],
      "name": "transferOwnership",
      "outputs": [],
      "stateMutability": "nonpayable",
      "type": "function"
    },
    {
      "inputs": [],
      "name": "unpause",
      "outputs": [],
      "stateMutability": "nonpayable",
      "type": "function"
    }
  ],
  "bytecode": "0x60806040523480156200001157600080fd5b506040516200190f3803806200190f8339810160408190526200003491620003de565b808484600362000045838262000501565b50600462000054828262000501565b5050506001600160a01b0381166200008757604051631e4fbdf760e01b8152600060048201526024015b60405180910390fd5b620000928162000105565b5069d3c21bcecceda1000000821115620000ef5760405162461bcd60e51b815260206004820152601e60248201527f496e697469616c20737570706c792065786365656473206d6178696d756d000060448201526064016200007e565b620000fb818362000157565b50505050620005f5565b600580546001600160a01b038381166001600160a01b0319831681179093556040519116919082907f8be0079c531659141344cd1fd0a4f28419497f9722a3daafe3b4186f6b6457e090600090a35050565b6001600160a01b038216620001835760405163ec442f0560e01b8152600060048201526024016200007e565b620001916000838362000195565b5050565b6200019f620001b1565b620001ac838383620001e6565b505050565b620001c5600554600160a01b900460ff1690565b15620001e45760405163d93c066560e01b815260040160405180910390fd5b565b6001600160a01b03831662000215578060026000828254620002099190620005cd565b90915550620002899050565b6001600160a01b038316600090815260208190526040902054818110156200026a5760405163391434e360e21b81526001600160a01b038516600482015260248101829052604481018390526064016200007e565b6001600160a01b03841660009081526020819052604090209082900390555b6001600160a01b038216620002a757600280548290039055620002c6565b6001600160a01b03821660009081526020819052604090208054820190555b816001600160a01b0316836001600160a01b03167fddf252ad1be2c89b69c2b068fc378daa952ba7f163c4a11628f55a4df523b3ef836040516200030c91815260200190565b60405180910390a3505050565b634e487b7160e01b600052604160045260246000fd5b600082601f8301126200034157600080fd5b81516001600160401b03808211156200035e576200035e62000319565b604051601f8301601f19908116603f0116810190828211818310171562000389576200038962000319565b81604052838152602092508683858801011115620003a657600080fd5b600091505b83821015620003ca5785820183015181830184015290820190620003ab565b600093810190920192909252949350505050565b60008060008060808587031215620003f557600080fd5b84516001600160401b03808211156200040d57600080fd5b6200041b888389016200032f565b955060208701519150808211156200043257600080fd5b5062000441878288016200032f565b60408701516060880151919550935090506001600160a01b03811681146200046857600080fd5b939692955090935050565b600181811c908216806200048857607f821691505b602082108103620004a957634e487b7160e01b600052602260045260246000fd5b50919050565b601f821115620001ac57600081815260208120601f850160051c81016020861015620004d85750805b601f850160051c820191505b81811015620004f957828155600101620004e4565b505050505050565b81516001600160401b038111156200051d576200051d62000319565b62000535816200052e845462000473565b84620004af565b602080601f8311600181146200056d5760008415620005545750858301515b600019600386901b1c1916600185901b178555620004f9565b600085815260208120601f198616915b828110156200059e578886015182559484019460019091019084016200057d565b5085821015620005bd5787850151600019600388901b60f8161c191681555b5050505050600190811b01905550565b80820180821115620005ef57634e487b7160e01b600052601160045260246000fd5b92915050565b61130a80620006056000396000f3fe608060405234801561001057600080fd5b506004361061018e5760003560e01c80636142e381116100de5780638da5cb5b11610097578063dd62ed3e11610071578063dd62ed3e14610391578063f2fde38b146103ca578063fb66b32f146103dd578063ffc58e87146103f057600080fd5b80638da5cb5b1461035b57806395d89b4114610376578063a9059cbb1461037e57600080fd5b80636142e381146102a557806368044b88146102ef57806370a0823114610302578063715018a61461032b5780638456cb59146103335780638baa353b1461033b57600080fd5b8063313ce5671161014b57806342966c681161012557806342966c681461025a57806343785dc91461026d5780634d7e7be4146102805780635c975abb1461029357600080fd5b8063313ce5671461023057806332cb6b0c1461023f5780633f4ba83a1461025057600080fd5b806306fdde0314610193578063095ea7b3146101b15780630b8c162c146101d457806318160ddd146101f257806323b872dd146101fa5780632df7c23c1461020d575b600080fd5b61019b610403565b6040516101a89190610fb9565b60405180910390f35b6101c46101bf366004611023565b610495565b60405190151581526020016101a8565b6101e468056bc75e2d6310000081565b6040519081526020016101a8565b6002546101e4565b6101c461020836600461104d565b6104af565b6101c461021b366004611089565b60076020526000908152604090205460ff1681565b604051601281526020016101a8565b6101e469d3c21bcecceda100000081565b6102586104d3565b005b6102586102683660046110ab565b6104e5565b61025861027b366004611023565b6104f2565b61025861028e366004611089565b61054e565b600554600160a01b900460ff166101c4565b6102da6102b3366004611089565b6001600160a01b031660009081526006602090815260408083205491839052909120549091565b604080519283526020830191909152016101a8565b6102586102fd366004611110565b6105a2565b6101e4610310366004611089565b6001600160a01b031660009081526020819052604090205490565b61025861085b565b61025861086d565b6101e4610349366004611089565b60066020526000908152604090205481565b6005546040516001600160a01b0390911681526020016101a8565b61019b61087d565b6101c461038c366004611023565b61088c565b6101e461039f36600461117c565b6001600160a01b03918216600090815260016020908152604080832093909416825291909152205490565b6102586103d8366004611089565b61089a565b6102586103eb366004611089565b6108d5565b6102586103fe366004611023565b610926565b606060038054610412906111af565b80601f016020809104026020016040519081016040528092919081815260200182805461043e906111af565b801561048b5780601f106104605761010080835404028352916020019161048b565b820191906000526020600020905b81548152906001019060200180831161046e57829003601f168201915b5050505050905090565b6000336104a3818585610adf565b60019150505b92915050565b6000336104bd858285610af1565b6104c8858585610b70565b506001949350505050565b6104db610bcf565b6104e3610bfc565b565b6104ef3382610c51565b50565b6104fa610bcf565b69d3c21bcecceda10000008161050f60025490565b61051991906111ff565b11156105405760405162461bcd60e51b815260040161053790611212565b60405180910390fd5b61054a8282610c87565b5050565b610556610bcf565b6001600160a01b038116600081815260076020526040808220805460ff19166001179055517fea45d526b76b7a7e4e292b475163f594fdd2c9e677d51d76105785aa9320bee19190a250565b3360009081526007602052604090205460ff16806105ca57506005546001600160a01b031633145b6105e65760405162461bcd60e51b815260040161053790611249565b82811461062e5760405162461bcd60e51b8152602060048201526016602482015275082e4e4c2f2e640d8cadccee8d040dad2e6dac2e8c6d60531b6044820152606401610537565b8261066a5760405162461bcd60e51b815260206004820152600c60248201526b456d7074792061727261797360a01b6044820152606401610537565b600061067f68056bc75e2d631000008561128e565b905069d3c21bcecceda10000008161069660025490565b6106a091906111ff565b11156106be5760405162461bcd60e51b815260040161053790611212565b60005b848110156108535760008686838181106106dd576106dd6112a5565b90506020020160208101906106f29190611089565b90506000858584818110610708576107086112a5565b60200291909101359150506001600160a01b0382166107635760405162461bcd60e51b8152602060048201526017602482015276496e76616c69642073747564656e74206164647265737360481b6044820152606401610537565b6001600160a01b03821660009081526006602052604090205481116107c45760405162461bcd60e51b815260206004820152601760248201527613195d995b08185b1c9958591e4818dbdb5c1b195d1959604a1b6044820152606401610537565b6001600160a01b03821660009081526006602052604090208190556107f28268056bc75e2d63100000610c87565b6040805182815268056bc75e2d6310000060208201526001600160a01b038416917f3d874470dba0fad010caa4b42a98890f3760e7f6cf8dbfe0db97a6a0f078031b910160405180910390a25050808061084b906112bb565b9150506106c1565b505050505050565b610863610bcf565b6104e36000610cbd565b610875610bcf565b6104e3610d0f565b606060048054610412906111af565b6000336104a3818585610b70565b6108a2610bcf565b6001600160a01b0381166108cc57604051631e4fbdf760e01b815260006004820152602401610537565b6104ef81610cbd565b6108dd610bcf565b6001600160a01b038116600081815260076020526040808220805460ff19169055517f2536a555405c53c4701c416eca6ccf27389a5cf5fa7fbbe89be28a13fc93bc109190a250565b3360009081526007602052604090205460ff168061094e57506005546001600160a01b031633145b61096a5760405162461bcd60e51b815260040161053790611249565b6001600160a01b0382166109ba5760405162461bcd60e51b8152602060048201526017602482015276496e76616c69642073747564656e74206164647265737360481b6044820152606401610537565b6001600160a01b0382166000908152600660205260409020548111610a1b5760405162461bcd60e51b815260206004820152601760248201527613195d995b08185b1c9958591e4818dbdb5c1b195d1959604a1b6044820152606401610537565b69d3c21bcecceda100000068056bc75e2d63100000610a3960025490565b610a4391906111ff565b1115610a615760405162461bcd60e51b815260040161053790611212565b6001600160a01b0382166000908152600660205260409020819055610a8f8268056bc75e2d63100000610c87565b6040805182815268056bc75e2d6310000060208201526001600160a01b038416917f3d874470dba0fad010caa4b42a98890f3760e7f6cf8dbfe0db97a6a0f078031b910160405180910390a25050565b610aec8383836001610d52565b505050565b6001600160a01b03838116600090815260016020908152604080832093861683529290522054600019811015610b6a5781811015610b5b57604051637dc7a0d960e11b81526001600160a01b03841660048201526024810182905260448101839052606401610537565b610b6a84848484036000610d52565b50505050565b6001600160a01b038316610b9a57604051634b637e8f60e11b815260006004820152602401610537565b6001600160a01b038216610bc45760405163ec442f0560e01b815260006004820152602401610537565b610aec838383610e27565b6005546001600160a01b031633146104e35760405163118cdaa760e01b8152336004820152602401610537565b610c04610e3a565b6005805460ff60a01b191690557f5db9ee0a495bf2e6ff9c91a7834c1ba4fdd244a5e8aa4e537bd38aeae4b073aa335b6040516001600160a01b03909116815260200160405180910390a1565b6001600160a01b038216610c7b57604051634b637e8f60e11b815260006004820152602401610537565b61054a82600083610e27565b6001600160a01b038216610cb15760405163ec442f0560e01b815260006004820152602401610537565b61054a60008383610e27565b600580546001600160a01b038381166001600160a01b0319831681179093556040519116919082907f8be0079c531659141344cd1fd0a4f28419497f9722a3daafe3b4186f6b6457e090600090a35050565b610d17610e64565b6005805460ff60a01b1916600160a01b1790557f62e78cea01bee320cd4e420270b5ea74000d11b0c9f74754ebdbfc544b05a258610c343390565b6001600160a01b038416610d7c5760405163e602df0560e01b815260006004820152602401610537565b6001600160a01b038316610da657604051634a1406b160e11b815260006004820152602401610537565b6001600160a01b0380851660009081526001602090815260408083209387168352929052208290558015610b6a57826001600160a01b0316846001600160a01b03167f8c5be1e5ebec7d5bd14f71427d1e84f3dd0314c0f7b2291e5b200ac8c7c3b92584604051610e1991815260200190565b60405180910390a350505050565b610e2f610e64565b610aec838383610e8f565b600554600160a01b900460ff166104e357604051638dfc202b60e01b815260040160405180910390fd5b600554600160a01b900460ff16156104e35760405163d93c066560e01b815260040160405180910390fd5b6001600160a01b038316610eba578060026000828254610eaf91906111ff565b90915550610f2c9050565b6001600160a01b03831660009081526020819052604090205481811015610f0d5760405163391434e360e21b81526001600160a01b03851660048201526024810182905260448101839052606401610537565b6001600160a01b03841660009081526020819052604090209082900390555b6001600160a01b038216610f4857600280548290039055610f67565b6001600160a01b03821660009081526020819052604090208054820190555b816001600160a01b0316836001600160a01b03167fddf252ad1be2c89b69c2b068fc378daa952ba7f163c4a11628f55a4df523b3ef83604051610fac91815260200190565b60405180910390a3505050565b600060208083528351808285015260005b81811015610fe657858101830151858201604001528201610fca565b506000604082860101526040601f19601f8301168501019250505092915050565b80356001600160a01b038116811461101e57600080fd5b919050565b6000806040838503121561103657600080fd5b61103f83611007565b946020939093013593505050565b60008060006060848603121561106257600080fd5b61106b84611007565b925061107960208501611007565b9150604084013590509250925092565b60006020828403121561109b57600080fd5b6110a482611007565b9392505050565b6000602082840312156110bd57600080fd5b5035919050565b60008083601f8401126110d657600080fd5b50813567ffffffffffffffff8111156110ee57600080fd5b6020830191508360208260051b850101111561110957600080fd5b9250929050565b6000806000806040858703121561112657600080fd5b843567ffffffffffffffff8082111561113e57600080fd5b61114a888389016110c4565b9096509450602087013591508082111561116357600080fd5b50611170878288016110c4565b95989497509550505050565b6000806040838503121561118f57600080fd5b61119883611007565b91506111a660208401611007565b90509250929050565b600181811c908216806111c357607f821691505b6020821081036111e357634e487b7160e01b600052602260045260246000fd5b50919050565b634e487b7160e01b600052601160045260246000fd5b808201808211156104a9576104a96111e9565b60208082526017908201527f576f756c6420657863656564206d617820737570706c79000000000000000000604082015260600190565b60208082526025908201527f4f6e6c79206564756361746f72732063616e2063616c6c20746869732066756e60408201526431ba34b7b760d91b606082015260800190565b80820281158282048414176104a9576104a96111e9565b634e487b7160e01b600052603260045260246000fd5b6000600182016112cd576112cd6111e9565b506001019056fea26469706673582212204fdd7808a98b91d03d78046371295d7d158b074c1befbf714498745cd40ed99564736f6c63430008140033",
  "linkReferences": {},
  "deployedLinkReferences": {}
}