{
  "_format": "hh-sol-artifact-1",
  "contractName": "SimpleStorage",
  "sourceName": "contracts/SimpleStorage.sol",
  "abi": [
    {
      "inputs": [
        {
          "internalType": "uint256",
          "name": "_initialValue",
          "type": "uint256"
        }
      ],
      "stateMutability": "nonpayable",
      "type": "constructor"
    },
    {
      "anonymous": false,
      "inputs": [
        {
          "indexed": true,
          "internalType": "uint256",
          "name": "data",
          "type": "uint256"
        },
        {
          "indexed": true,
          "internalType": "address",
          "name": "by",
          "type": "address"
        }
      ],
      "name": "DataStored",
      "type": "event"
    },
    {
      "anonymous": false,
      "inputs": [
        {
          "indexed": true,
          "internalType": "address",
          "name": "previousOwner",
          "type": "address"
        },
        {
          "indexed": true,
          "internalType": "address",
          "name": "newOwner",
          "type": "address"
        }
      ],
      "name": "OwnershipTransferred",
      "type": "event"
    },
    {
      "inputs": [],
      "name": "get",
      "outputs": [
        {
          "internalType": "uint256",
          "name": "",
          "type": "uint256"
        }
      ],
      "stateMutability": "view",
      "type": "function"
    },
    {
      "inputs": [],
      "name": "owner",
      "outputs": [
        {
          "internalType": "address",
          "name": "",
          "type": "address"
        }
      ],
      "stateMutability": "view",
      "type": "function"
    },
    {
      "inputs": [
        {
          "internalType": "uint256",
          "name": "x",
          "type": "uint256"
        }
      ],
      "name": "set",
      "outputs": [],
      "stateMutability": "nonpayable",
      "type": "function"
    },
    {
      "inputs": [
        {
          "internalType": "uint256",
          "name": "x",
          "type": "uint256"
        }
      ],
      "name": "setByOwner",
      "outputs": [],
      "stateMutability": "nonpayable",
      "type": "function"
    },
    {
      "inputs": [
        {
          "internalType": "address",
          "name": "newOwner",
          "type": "address"
        }
      ],
      "name": "transferOwnership",
      "outputs": [],
      "stateMutability": "nonpayable",
      "type": "function"
    }
  ],
  "bytecode": "0x608060405234801561001057600080fd5b5060405161037c38038061037c83398101604081905261002f9161007a565b6000818155600180546001600160a01b03191633908117909155604051909183917fad78bd60223e723bf7bdc74c7dfda6b62da93a84d5765178bc8a8ec6a365376e9190a350610093565b60006020828403121561008c57600080fd5b5051919050565b6102da806100a26000396000f3fe608060405234801561001057600080fd5b50600436106100575760003560e01c8063422eba231461005c57806360fe47b1146100715780636d4ce63c146100845780638da5cb5b1461009a578063f2fde38b146100c5575b600080fd5b61006f61006a36600461021a565b6100d8565b005b61006f61007f36600461021a565b61010b565b6000546040519081526020015b60405180910390f35b6001546100ad906001600160a01b031681565b6040516001600160a01b039091168152602001610091565b61006f6100d3366004610233565b61013e565b6001546001600160a01b0316331461010b5760405162461bcd60e51b815260040161010290610263565b60405180910390fd5b6000818155604051339183917fad78bd60223e723bf7bdc74c7dfda6b62da93a84d5765178bc8a8ec6a365376e9190a350565b6001546001600160a01b031633146101685760405162461bcd60e51b815260040161010290610263565b6001600160a01b0381166101be5760405162461bcd60e51b815260206004820181905260248201527f4e6577206f776e65722063616e6e6f74206265207a65726f20616464726573736044820152606401610102565b6001546040516001600160a01b038084169216907f8be0079c531659141344cd1fd0a4f28419497f9722a3daafe3b4186f6b6457e090600090a3600180546001600160a01b0319166001600160a01b0392909216919091179055565b60006020828403121561022c57600080fd5b5035919050565b60006020828403121561024557600080fd5b81356001600160a01b038116811461025c57600080fd5b9392505050565b60208082526021908201527f4f6e6c79206f776e65722063616e2063616c6c20746869732066756e6374696f6040820152603760f91b60608201526080019056fea26469706673582212203ae4e10a2bdbec4e03a23fb1a01972da3e77095a88161fb8de18a843b70aa8f564736f6c63430008140033",
  "linkReferences": {},
  "deployedLinkReferences": {}
}